{
  "contractName": "SmartContract",
  "abi": [
    {
      "inputs": [],
      "stateMutability": "nonpayable",
      "type": "constructor"
    },
    {
      "anonymous": false,
      "inputs": [
        {
          "indexed": true,
          "internalType": "address",
          "name": "owner",
          "type": "address"
        },
        {
          "indexed": true,
          "internalType": "address",
          "name": "approved",
          "type": "address"
        },
        {
          "indexed": true,
          "internalType": "uint256",
          "name": "tokenId",
          "type": "uint256"
        }
      ],
      "name": "Approval",
      "type": "event"
    },
    {
      "anonymous": false,
      "inputs": [
        {
          "indexed": true,
          "internalType": "address",
          "name": "owner",
          "type": "address"
        },
        {
          "indexed": true,
          "internalType": "address",
          "name": "operator",
          "type": "address"
        },
        {
          "indexed": false,
          "internalType": "bool",
          "name": "approved",
          "type": "bool"
        }
      ],
      "name": "ApprovalForAll",
      "type": "event"
    },
    {
      "anonymous": false,
      "inputs": [
        {
          "indexed": true,
          "internalType": "address",
          "name": "previousOwner",
          "type": "address"
        },
        {
          "indexed": true,
          "internalType": "address",
          "name": "newOwner",
          "type": "address"
        }
      ],
      "name": "OwnershipTransferred",
      "type": "event"
    },
    {
      "anonymous": false,
      "inputs": [
        {
          "indexed": true,
          "internalType": "address",
          "name": "from",
          "type": "address"
        },
        {
          "indexed": true,
          "internalType": "address",
          "name": "to",
          "type": "address"
        },
        {
          "indexed": true,
          "internalType": "uint256",
          "name": "tokenId",
          "type": "uint256"
        }
      ],
      "name": "Transfer",
      "type": "event"
    },
    {
      "inputs": [
        {
          "internalType": "address",
          "name": "to",
          "type": "address"
        },
        {
          "internalType": "uint256",
          "name": "tokenId",
          "type": "uint256"
        }
      ],
      "name": "approve",
      "outputs": [],
      "stateMutability": "nonpayable",
      "type": "function"
    },
    {
      "inputs": [
        {
          "internalType": "address",
          "name": "owner",
          "type": "address"
        }
      ],
      "name": "balanceOf",
      "outputs": [
        {
          "internalType": "uint256",
          "name": "",
          "type": "uint256"
        }
      ],
      "stateMutability": "view",
      "type": "function"
    },
    {
      "inputs": [
        {
          "internalType": "uint256",
          "name": "tokenId",
          "type": "uint256"
        }
      ],
      "name": "getApproved",
      "outputs": [
        {
          "internalType": "address",
          "name": "",
          "type": "address"
        }
      ],
      "stateMutability": "view",
      "type": "function"
    },
    {
      "inputs": [
        {
          "internalType": "address",
          "name": "owner",
          "type": "address"
        },
        {
          "internalType": "address",
          "name": "operator",
          "type": "address"
        }
      ],
      "name": "isApprovedForAll",
      "outputs": [
        {
          "internalType": "bool",
          "name": "",
          "type": "bool"
        }
      ],
      "stateMutability": "view",
      "type": "function"
    },
    {
      "inputs": [],
      "name": "name",
      "outputs": [
        {
          "internalType": "string",
          "name": "",
          "type": "string"
        }
      ],
      "stateMutability": "view",
      "type": "function"
    },
    {
      "inputs": [],
      "name": "owner",
      "outputs": [
        {
          "internalType": "address",
          "name": "",
          "type": "address"
        }
      ],
      "stateMutability": "view",
      "type": "function"
    },
    {
      "inputs": [
        {
          "internalType": "uint256",
          "name": "tokenId",
          "type": "uint256"
        }
      ],
      "name": "ownerOf",
      "outputs": [
        {
          "internalType": "address",
          "name": "",
          "type": "address"
        }
      ],
      "stateMutability": "view",
      "type": "function"
    },
    {
      "inputs": [],
      "name": "renounceOwnership",
      "outputs": [],
      "stateMutability": "nonpayable",
      "type": "function"
    },
    {
      "inputs": [
        {
          "internalType": "address",
          "name": "from",
          "type": "address"
        },
        {
          "internalType": "address",
          "name": "to",
          "type": "address"
        },
        {
          "internalType": "uint256",
          "name": "tokenId",
          "type": "uint256"
        }
      ],
      "name": "safeTransferFrom",
      "outputs": [],
      "stateMutability": "nonpayable",
      "type": "function"
    },
    {
      "inputs": [
        {
          "internalType": "address",
          "name": "from",
          "type": "address"
        },
        {
          "internalType": "address",
          "name": "to",
          "type": "address"
        },
        {
          "internalType": "uint256",
          "name": "tokenId",
          "type": "uint256"
        },
        {
          "internalType": "bytes",
          "name": "_data",
          "type": "bytes"
        }
      ],
      "name": "safeTransferFrom",
      "outputs": [],
      "stateMutability": "nonpayable",
      "type": "function"
    },
    {
      "inputs": [
        {
          "internalType": "address",
          "name": "operator",
          "type": "address"
        },
        {
          "internalType": "bool",
          "name": "approved",
          "type": "bool"
        }
      ],
      "name": "setApprovalForAll",
      "outputs": [],
      "stateMutability": "nonpayable",
      "type": "function"
    },
    {
      "inputs": [
        {
          "internalType": "bytes4",
          "name": "interfaceId",
          "type": "bytes4"
        }
      ],
      "name": "supportsInterface",
      "outputs": [
        {
          "internalType": "bool",
          "name": "",
          "type": "bool"
        }
      ],
      "stateMutability": "view",
      "type": "function"
    },
    {
      "inputs": [],
      "name": "symbol",
      "outputs": [
        {
          "internalType": "string",
          "name": "",
          "type": "string"
        }
      ],
      "stateMutability": "view",
      "type": "function"
    },
    {
      "inputs": [
        {
          "internalType": "address",
          "name": "from",
          "type": "address"
        },
        {
          "internalType": "address",
          "name": "to",
          "type": "address"
        },
        {
          "internalType": "uint256",
          "name": "tokenId",
          "type": "uint256"
        }
      ],
      "name": "transferFrom",
      "outputs": [],
      "stateMutability": "nonpayable",
      "type": "function"
    },
    {
      "inputs": [
        {
          "internalType": "address",
          "name": "newOwner",
          "type": "address"
        }
      ],
      "name": "transferOwnership",
      "outputs": [],
      "stateMutability": "nonpayable",
      "type": "function"
    },
    {
      "inputs": [
        {
          "internalType": "uint256",
          "name": "tokenId",
          "type": "uint256"
        }
      ],
      "name": "tokenURI",
      "outputs": [
        {
          "internalType": "string",
          "name": "",
          "type": "string"
        }
      ],
      "stateMutability": "view",
      "type": "function"
    },
    {
      "inputs": [],
      "name": "getAllTokens",
      "outputs": [
        {
          "components": [
            {
              "internalType": "uint256",
              "name": "id",
              "type": "uint256"
            },
            {
              "internalType": "string",
              "name": "uri",
              "type": "string"
            }
          ],
          "internalType": "struct SmartContract.RenderToken[]",
          "name": "",
          "type": "tuple[]"
        }
      ],
      "stateMutability": "view",
      "type": "function"
    },
    {
      "inputs": [
        {
          "internalType": "address",
          "name": "recipient",
          "type": "address"
        },
        {
          "internalType": "string",
          "name": "uri",
          "type": "string"
        }
      ],
      "name": "mint",
      "outputs": [
        {
          "internalType": "uint256",
          "name": "",
          "type": "uint256"
        }
      ],
      "stateMutability": "nonpayable",
      "type": "function"
    }
  ],
  "bytecode": "0x60806040523480156200001157600080fd5b506040518060400160405280600e81526020017f536d61727420436f6e74726163740000000000000000000000000000000000008152506040518060400160405280600281526020017f5343000000000000000000000000000000000000000000000000000000000000815250816000908051906020019062000096929190620001a6565b508060019080519060200190620000af929190620001a6565b505050620000d2620000c6620000d860201b60201c565b620000e060201b60201c565b620002bb565b600033905090565b6000600660009054906101000a900473ffffffffffffffffffffffffffffffffffffffff16905081600660006101000a81548173ffffffffffffffffffffffffffffffffffffffff021916908373ffffffffffffffffffffffffffffffffffffffff1602179055508173ffffffffffffffffffffffffffffffffffffffff168173ffffffffffffffffffffffffffffffffffffffff167f8be0079c531659141344cd1fd0a4f28419497f9722a3daafe3b4186f6b6457e060405160405180910390a35050565b828054620001b49062000285565b90600052602060002090601f016020900481019282620001d8576000855562000224565b82601f10620001f357805160ff191683800117855562000224565b8280016001018555821562000224579182015b828111156200022357825182559160200191906001019062000206565b5b50905062000233919062000237565b5090565b5b808211156200025257600081600090555060010162000238565b5090565b7f4e487b7100000000000000000000000000000000000000000000000000000000600052602260045260246000fd5b600060028204905060018216806200029e57607f821691505b60208210811415620002b557620002b462000256565b5b50919050565b612c6f80620002cb6000396000f3fe608060405234801561001057600080fd5b50600436106101165760003560e01c8063715018a6116100a2578063b88d4fde11610071578063b88d4fde146102cd578063c87b56dd146102e9578063d0def52114610319578063e985e9c514610349578063f2fde38b1461037957610116565b8063715018a61461026b5780638da5cb5b1461027557806395d89b4114610293578063a22cb465146102b157610116565b806323b872dd116100e957806323b872dd146101b55780632a5c792a146101d157806342842e0e146101ef5780636352211e1461020b57806370a082311461023b57610116565b806301ffc9a71461011b57806306fdde031461014b578063081812fc14610169578063095ea7b314610199575b600080fd5b61013560048036038101906101309190611a00565b610395565b6040516101429190611a48565b60405180910390f35b610153610477565b6040516101609190611afc565b60405180910390f35b610183600480360381019061017e9190611b54565b610509565b6040516101909190611bc2565b60405180910390f35b6101b360048036038101906101ae9190611c09565b61058e565b005b6101cf60048036038101906101ca9190611c49565b6106a6565b005b6101d9610706565b6040516101e69190611df4565b60405180910390f35b61020960048036038101906102049190611c49565b6107f5565b005b61022560048036038101906102209190611b54565b610815565b6040516102329190611bc2565b60405180910390f35b61025560048036038101906102509190611e16565b6108c7565b6040516102629190611e52565b60405180910390f35b61027361097f565b005b61027d610a07565b60405161028a9190611bc2565b60405180910390f35b61029b610a31565b6040516102a89190611afc565b60405180910390f35b6102cb60048036038101906102c69190611e99565b610ac3565b005b6102e760048036038101906102e2919061200e565b610c44565b005b61030360048036038101906102fe9190611b54565b610ca6565b6040516103109190611afc565b60405180910390f35b610333600480360381019061032e9190612132565b610d63565b6040516103409190611e52565b60405180910390f35b610363600480360381019061035e919061218e565b610d9a565b6040516103709190611a48565b60405180910390f35b610393600480360381019061038e9190611e16565b610e2e565b005b60007f80ac58cd000000000000000000000000000000000000000000000000000000007bffffffffffffffffffffffffffffffffffffffffffffffffffffffff1916827bffffffffffffffffffffffffffffffffffffffffffffffffffffffff1916148061046057507f5b5e139f000000000000000000000000000000000000000000000000000000007bffffffffffffffffffffffffffffffffffffffffffffffffffffffff1916827bffffffffffffffffffffffffffffffffffffffffffffffffffffffff1916145b80610470575061046f82610f26565b5b9050919050565b606060008054610486906121fd565b80601f01602080910402602001604051908101604052809291908181526020018280546104b2906121fd565b80156104ff5780601f106104d4576101008083540402835291602001916104ff565b820191906000526020600020905b8154815290600101906020018083116104e257829003601f168201915b5050505050905090565b600061051482610f90565b610553576040517f08c379a000000000000000000000000000000000000000000000000000000000815260040161054a906122a1565b60405180910390fd5b6004600083815260200190815260200160002060009054906101000a900473ffffffffffffffffffffffffffffffffffffffff169050919050565b600061059982610815565b90508073ffffffffffffffffffffffffffffffffffffffff168373ffffffffffffffffffffffffffffffffffffffff16141561060a576040517f08c379a000000000000000000000000000000000000000000000000000000000815260040161060190612333565b60405180910390fd5b8073ffffffffffffffffffffffffffffffffffffffff16610629610ffc565b73ffffffffffffffffffffffffffffffffffffffff161480610658575061065781610652610ffc565b610d9a565b5b610697576040517f08c379a000000000000000000000000000000000000000000000000000000000815260040161068e906123c5565b60405180910390fd5b6106a18383611004565b505050565b6106b76106b1610ffc565b826110bd565b6106f6576040517f08c379a00000000000000000000000000000000000000000000000000000000081526004016106ed90612457565b60405180910390fd5b61070183838361119b565b505050565b6060600061071460076113f7565b90506000808267ffffffffffffffff81111561073357610732611ee3565b5b60405190808252806020026020018201604052801561076c57816020015b6107596118d7565b8152602001906001900390816107515790505b50905060005b838110156107eb5761078383610f90565b156107ca57600061079384610ca6565b90506040518060400160405280858152602001828152508385815181106107bd576107bc612477565b5b6020026020010181905250505b82806107d5906124d5565b93505080806107e3906124d5565b915050610772565b5080935050505090565b61081083838360405180602001604052806000815250610c44565b505050565b6000806002600084815260200190815260200160002060009054906101000a900473ffffffffffffffffffffffffffffffffffffffff169050600073ffffffffffffffffffffffffffffffffffffffff168173ffffffffffffffffffffffffffffffffffffffff1614156108be576040517f08c379a00000000000000000000000000000000000000000000000000000000081526004016108b590612590565b60405180910390fd5b80915050919050565b60008073ffffffffffffffffffffffffffffffffffffffff168273ffffffffffffffffffffffffffffffffffffffff161415610938576040517f08c379a000000000000000000000000000000000000000000000000000000000815260040161092f90612622565b60405180910390fd5b600360008373ffffffffffffffffffffffffffffffffffffffff1673ffffffffffffffffffffffffffffffffffffffff168152602001908152602001600020549050919050565b610987610ffc565b73ffffffffffffffffffffffffffffffffffffffff166109a5610a07565b73ffffffffffffffffffffffffffffffffffffffff16146109fb576040517f08c379a00000000000000000000000000000000000000000000000000000000081526004016109f29061268e565b60405180910390fd5b610a056000611405565b565b6000600660009054906101000a900473ffffffffffffffffffffffffffffffffffffffff16905090565b606060018054610a40906121fd565b80601f0160208091040260200160405190810160405280929190818152602001828054610a6c906121fd565b8015610ab95780601f10610a8e57610100808354040283529160200191610ab9565b820191906000526020600020905b815481529060010190602001808311610a9c57829003601f168201915b5050505050905090565b610acb610ffc565b73ffffffffffffffffffffffffffffffffffffffff168273ffffffffffffffffffffffffffffffffffffffff161415610b39576040517f08c379a0000000000000000000000000000000000000000000000000000000008152600401610b30906126fa565b60405180910390fd5b8060056000610b46610ffc565b73ffffffffffffffffffffffffffffffffffffffff1673ffffffffffffffffffffffffffffffffffffffff16815260200190815260200160002060008473ffffffffffffffffffffffffffffffffffffffff1673ffffffffffffffffffffffffffffffffffffffff16815260200190815260200160002060006101000a81548160ff0219169083151502179055508173ffffffffffffffffffffffffffffffffffffffff16610bf3610ffc565b73ffffffffffffffffffffffffffffffffffffffff167f17307eab39ab6107e8899845ad3d59bd9653f200f220920489ca2b5937696c3183604051610c389190611a48565b60405180910390a35050565b610c55610c4f610ffc565b836110bd565b610c94576040517f08c379a0000000000000000000000000000000000000000000000000000000008152600401610c8b90612457565b60405180910390fd5b610ca0848484846114cb565b50505050565b6060610cb182610f90565b610cba57600080fd5b6000600860008481526020019081526020016000208054610cda906121fd565b80601f0160208091040260200160405190810160405280929190818152602001828054610d06906121fd565b8015610d535780601f10610d2857610100808354040283529160200191610d53565b820191906000526020600020905b815481529060010190602001808311610d3657829003601f168201915b5050505050905080915050919050565b600080610d7060076113f7565b9050610d7c8482611527565b610d8681846116f5565b610d906007611721565b8091505092915050565b6000600560008473ffffffffffffffffffffffffffffffffffffffff1673ffffffffffffffffffffffffffffffffffffffff16815260200190815260200160002060008373ffffffffffffffffffffffffffffffffffffffff1673ffffffffffffffffffffffffffffffffffffffff16815260200190815260200160002060009054906101000a900460ff16905092915050565b610e36610ffc565b73ffffffffffffffffffffffffffffffffffffffff16610e54610a07565b73ffffffffffffffffffffffffffffffffffffffff1614610eaa576040517f08c379a0000000000000000000000000000000000000000000000000000000008152600401610ea19061268e565b60405180910390fd5b600073ffffffffffffffffffffffffffffffffffffffff168173ffffffffffffffffffffffffffffffffffffffff161415610f1a576040517f08c379a0000000000000000000000000000000000000000000000000000000008152600401610f119061278c565b60405180910390fd5b610f2381611405565b50565b60007f01ffc9a7000000000000000000000000000000000000000000000000000000007bffffffffffffffffffffffffffffffffffffffffffffffffffffffff1916827bffffffffffffffffffffffffffffffffffffffffffffffffffffffff1916149050919050565b60008073ffffffffffffffffffffffffffffffffffffffff166002600084815260200190815260200160002060009054906101000a900473ffffffffffffffffffffffffffffffffffffffff1673ffffffffffffffffffffffffffffffffffffffff1614159050919050565b600033905090565b816004600083815260200190815260200160002060006101000a81548173ffffffffffffffffffffffffffffffffffffffff021916908373ffffffffffffffffffffffffffffffffffffffff160217905550808273ffffffffffffffffffffffffffffffffffffffff1661107783610815565b73ffffffffffffffffffffffffffffffffffffffff167f8c5be1e5ebec7d5bd14f71427d1e84f3dd0314c0f7b2291e5b200ac8c7c3b92560405160405180910390a45050565b60006110c882610f90565b611107576040517f08c379a00000000000000000000000000000000000000000000000000000000081526004016110fe9061281e565b60405180910390fd5b600061111283610815565b90508073ffffffffffffffffffffffffffffffffffffffff168473ffffffffffffffffffffffffffffffffffffffff16148061118157508373ffffffffffffffffffffffffffffffffffffffff1661116984610509565b73ffffffffffffffffffffffffffffffffffffffff16145b8061119257506111918185610d9a565b5b91505092915050565b8273ffffffffffffffffffffffffffffffffffffffff166111bb82610815565b73ffffffffffffffffffffffffffffffffffffffff1614611211576040517f08c379a0000000000000000000000000000000000000000000000000000000008152600401611208906128b0565b60405180910390fd5b600073ffffffffffffffffffffffffffffffffffffffff168273ffffffffffffffffffffffffffffffffffffffff161415611281576040517f08c379a000000000000000000000000000000000000000000000000000000000815260040161127890612942565b60405180910390fd5b61128c838383611737565b611297600082611004565b6001600360008573ffffffffffffffffffffffffffffffffffffffff1673ffffffffffffffffffffffffffffffffffffffff16815260200190815260200160002060008282546112e79190612962565b925050819055506001600360008473ffffffffffffffffffffffffffffffffffffffff1673ffffffffffffffffffffffffffffffffffffffff168152602001908152602001600020600082825461133e9190612996565b92505081905550816002600083815260200190815260200160002060006101000a81548173ffffffffffffffffffffffffffffffffffffffff021916908373ffffffffffffffffffffffffffffffffffffffff160217905550808273ffffffffffffffffffffffffffffffffffffffff168473ffffffffffffffffffffffffffffffffffffffff167fddf252ad1be2c89b69c2b068fc378daa952ba7f163c4a11628f55a4df523b3ef60405160405180910390a4505050565b600081600001549050919050565b6000600660009054906101000a900473ffffffffffffffffffffffffffffffffffffffff16905081600660006101000a81548173ffffffffffffffffffffffffffffffffffffffff021916908373ffffffffffffffffffffffffffffffffffffffff1602179055508173ffffffffffffffffffffffffffffffffffffffff168173ffffffffffffffffffffffffffffffffffffffff167f8be0079c531659141344cd1fd0a4f28419497f9722a3daafe3b4186f6b6457e060405160405180910390a35050565b6114d684848461119b565b6114e28484848461173c565b611521576040517f08c379a000000000000000000000000000000000000000000000000000000000815260040161151890612a5e565b60405180910390fd5b50505050565b600073ffffffffffffffffffffffffffffffffffffffff168273ffffffffffffffffffffffffffffffffffffffff161415611597576040517f08c379a000000000000000000000000000000000000000000000000000000000815260040161158e90612aca565b60405180910390fd5b6115a081610f90565b156115e0576040517f08c379a00000000000000000000000000000000000000000000000000000000081526004016115d790612b36565b60405180910390fd5b6115ec60008383611737565b6001600360008473ffffffffffffffffffffffffffffffffffffffff1673ffffffffffffffffffffffffffffffffffffffff168152602001908152602001600020600082825461163c9190612996565b92505081905550816002600083815260200190815260200160002060006101000a81548173ffffffffffffffffffffffffffffffffffffffff021916908373ffffffffffffffffffffffffffffffffffffffff160217905550808273ffffffffffffffffffffffffffffffffffffffff16600073ffffffffffffffffffffffffffffffffffffffff167fddf252ad1be2c89b69c2b068fc378daa952ba7f163c4a11628f55a4df523b3ef60405160405180910390a45050565b8060086000848152602001908152602001600020908051906020019061171c9291906118f1565b505050565b6001816000016000828254019250508190555050565b505050565b600061175d8473ffffffffffffffffffffffffffffffffffffffff166118c4565b156118b7578373ffffffffffffffffffffffffffffffffffffffff1663150b7a02611786610ffc565b8786866040518563ffffffff1660e01b81526004016117a89493929190612bab565b6020604051808303816000875af19250505080156117e457506040513d601f19601f820116820180604052508101906117e19190612c0c565b60015b611867573d8060008114611814576040519150601f19603f3d011682016040523d82523d6000602084013e611819565b606091505b5060008151141561185f576040517f08c379a000000000000000000000000000000000000000000000000000000000815260040161185690612a5e565b60405180910390fd5b805181602001fd5b63150b7a0260e01b7bffffffffffffffffffffffffffffffffffffffffffffffffffffffff1916817bffffffffffffffffffffffffffffffffffffffffffffffffffffffff1916149150506118bc565b600190505b949350505050565b600080823b905060008111915050919050565b604051806040016040528060008152602001606081525090565b8280546118fd906121fd565b90600052602060002090601f01602090048101928261191f5760008555611966565b82601f1061193857805160ff1916838001178555611966565b82800160010185558215611966579182015b8281111561196557825182559160200191906001019061194a565b5b5090506119739190611977565b5090565b5b80821115611990576000816000905550600101611978565b5090565b6000604051905090565b600080fd5b600080fd5b60007fffffffff0000000000000000000000000000000000000000000000000000000082169050919050565b6119dd816119a8565b81146119e857600080fd5b50565b6000813590506119fa816119d4565b92915050565b600060208284031215611a1657611a1561199e565b5b6000611a24848285016119eb565b91505092915050565b60008115159050919050565b611a4281611a2d565b82525050565b6000602082019050611a5d6000830184611a39565b92915050565b600081519050919050565b600082825260208201905092915050565b60005b83811015611a9d578082015181840152602081019050611a82565b83811115611aac576000848401525b50505050565b6000601f19601f8301169050919050565b6000611ace82611a63565b611ad88185611a6e565b9350611ae8818560208601611a7f565b611af181611ab2565b840191505092915050565b60006020820190508181036000830152611b168184611ac3565b905092915050565b6000819050919050565b611b3181611b1e565b8114611b3c57600080fd5b50565b600081359050611b4e81611b28565b92915050565b600060208284031215611b6a57611b6961199e565b5b6000611b7884828501611b3f565b91505092915050565b600073ffffffffffffffffffffffffffffffffffffffff82169050919050565b6000611bac82611b81565b9050919050565b611bbc81611ba1565b82525050565b6000602082019050611bd76000830184611bb3565b92915050565b611be681611ba1565b8114611bf157600080fd5b50565b600081359050611c0381611bdd565b92915050565b60008060408385031215611c2057611c1f61199e565b5b6000611c2e85828601611bf4565b9250506020611c3f85828601611b3f565b9150509250929050565b600080600060608486031215611c6257611c6161199e565b5b6000611c7086828701611bf4565b9350506020611c8186828701611bf4565b9250506040611c9286828701611b3f565b9150509250925092565b600081519050919050565b600082825260208201905092915050565b6000819050602082019050919050565b611cd181611b1e565b82525050565b600082825260208201905092915050565b6000611cf382611a63565b611cfd8185611cd7565b9350611d0d818560208601611a7f565b611d1681611ab2565b840191505092915050565b6000604083016000830151611d396000860182611cc8565b5060208301518482036020860152611d518282611ce8565b9150508091505092915050565b6000611d6a8383611d21565b905092915050565b6000602082019050919050565b6000611d8a82611c9c565b611d948185611ca7565b935083602082028501611da685611cb8565b8060005b85811015611de25784840389528151611dc38582611d5e565b9450611dce83611d72565b925060208a01995050600181019050611daa565b50829750879550505050505092915050565b60006020820190508181036000830152611e0e8184611d7f565b905092915050565b600060208284031215611e2c57611e2b61199e565b5b6000611e3a84828501611bf4565b91505092915050565b611e4c81611b1e565b82525050565b6000602082019050611e676000830184611e43565b92915050565b611e7681611a2d565b8114611e8157600080fd5b50565b600081359050611e9381611e6d565b92915050565b60008060408385031215611eb057611eaf61199e565b5b6000611ebe85828601611bf4565b9250506020611ecf85828601611e84565b9150509250929050565b600080fd5b600080fd5b7f4e487b7100000000000000000000000000000000000000000000000000000000600052604160045260246000fd5b611f1b82611ab2565b810181811067ffffffffffffffff82111715611f3a57611f39611ee3565b5b80604052505050565b6000611f4d611994565b9050611f598282611f12565b919050565b600067ffffffffffffffff821115611f7957611f78611ee3565b5b611f8282611ab2565b9050602081019050919050565b82818337600083830152505050565b6000611fb1611fac84611f5e565b611f43565b905082815260208101848484011115611fcd57611fcc611ede565b5b611fd8848285611f8f565b509392505050565b600082601f830112611ff557611ff4611ed9565b5b8135612005848260208601611f9e565b91505092915050565b600080600080608085870312156120285761202761199e565b5b600061203687828801611bf4565b945050602061204787828801611bf4565b935050604061205887828801611b3f565b925050606085013567ffffffffffffffff811115612079576120786119a3565b5b61208587828801611fe0565b91505092959194509250565b600067ffffffffffffffff8211156120ac576120ab611ee3565b5b6120b582611ab2565b9050602081019050919050565b60006120d56120d084612091565b611f43565b9050828152602081018484840111156120f1576120f0611ede565b5b6120fc848285611f8f565b509392505050565b600082601f83011261211957612118611ed9565b5b81356121298482602086016120c2565b91505092915050565b600080604083850312156121495761214861199e565b5b600061215785828601611bf4565b925050602083013567ffffffffffffffff811115612178576121776119a3565b5b61218485828601612104565b9150509250929050565b600080604083850312156121a5576121a461199e565b5b60006121b385828601611bf4565b92505060206121c485828601611bf4565b9150509250929050565b7f4e487b7100000000000000000000000000000000000000000000000000000000600052602260045260246000fd5b6000600282049050600182168061221557607f821691505b60208210811415612229576122286121ce565b5b50919050565b7f4552433732313a20617070726f76656420717565727920666f72206e6f6e657860008201527f697374656e7420746f6b656e0000000000000000000000000000000000000000602082015250565b600061228b602c83611a6e565b91506122968261222f565b604082019050919050565b600060208201905081810360008301526122ba8161227e565b9050919050565b7f4552433732313a20617070726f76616c20746f2063757272656e74206f776e6560008201527f7200000000000000000000000000000000000000000000000000000000000000602082015250565b600061231d602183611a6e565b9150612328826122c1565b604082019050919050565b6000602082019050818103600083015261234c81612310565b9050919050565b7f4552433732313a20617070726f76652063616c6c6572206973206e6f74206f7760008201527f6e6572206e6f7220617070726f76656420666f7220616c6c0000000000000000602082015250565b60006123af603883611a6e565b91506123ba82612353565b604082019050919050565b600060208201905081810360008301526123de816123a2565b9050919050565b7f4552433732313a207472616e736665722063616c6c6572206973206e6f74206f60008201527f776e6572206e6f7220617070726f766564000000000000000000000000000000602082015250565b6000612441603183611a6e565b915061244c826123e5565b604082019050919050565b6000602082019050818103600083015261247081612434565b9050919050565b7f4e487b7100000000000000000000000000000000000000000000000000000000600052603260045260246000fd5b7f4e487b7100000000000000000000000000000000000000000000000000000000600052601160045260246000fd5b60006124e082611b1e565b91507fffffffffffffffffffffffffffffffffffffffffffffffffffffffffffffffff821415612513576125126124a6565b5b600182019050919050565b7f4552433732313a206f776e657220717565727920666f72206e6f6e657869737460008201527f656e7420746f6b656e0000000000000000000000000000000000000000000000602082015250565b600061257a602983611a6e565b91506125858261251e565b604082019050919050565b600060208201905081810360008301526125a98161256d565b9050919050565b7f4552433732313a2062616c616e636520717565727920666f7220746865207a6560008201527f726f206164647265737300000000000000000000000000000000000000000000602082015250565b600061260c602a83611a6e565b9150612617826125b0565b604082019050919050565b6000602082019050818103600083015261263b816125ff565b9050919050565b7f4f776e61626c653a2063616c6c6572206973206e6f7420746865206f776e6572600082015250565b6000612678602083611a6e565b915061268382612642565b602082019050919050565b600060208201905081810360008301526126a78161266b565b9050919050565b7f4552433732313a20617070726f766520746f2063616c6c657200000000000000600082015250565b60006126e4601983611a6e565b91506126ef826126ae565b602082019050919050565b60006020820190508181036000830152612713816126d7565b9050919050565b7f4f776e61626c653a206e6577206f776e657220697320746865207a65726f206160008201527f6464726573730000000000000000000000000000000000000000000000000000602082015250565b6000612776602683611a6e565b91506127818261271a565b604082019050919050565b600060208201905081810360008301526127a581612769565b9050919050565b7f4552433732313a206f70657261746f7220717565727920666f72206e6f6e657860008201527f697374656e7420746f6b656e0000000000000000000000000000000000000000602082015250565b6000612808602c83611a6e565b9150612813826127ac565b604082019050919050565b60006020820190508181036000830152612837816127fb565b9050919050565b7f4552433732313a207472616e73666572206f6620746f6b656e2074686174206960008201527f73206e6f74206f776e0000000000000000000000000000000000000000000000602082015250565b600061289a602983611a6e565b91506128a58261283e565b604082019050919050565b600060208201905081810360008301526128c98161288d565b9050919050565b7f4552433732313a207472616e7366657220746f20746865207a65726f2061646460008201527f7265737300000000000000000000000000000000000000000000000000000000602082015250565b600061292c602483611a6e565b9150612937826128d0565b604082019050919050565b6000602082019050818103600083015261295b8161291f565b9050919050565b600061296d82611b1e565b915061297883611b1e565b92508282101561298b5761298a6124a6565b5b828203905092915050565b60006129a182611b1e565b91506129ac83611b1e565b9250827fffffffffffffffffffffffffffffffffffffffffffffffffffffffffffffffff038211156129e1576129e06124a6565b5b828201905092915050565b7f4552433732313a207472616e7366657220746f206e6f6e20455243373231526560008201527f63656976657220696d706c656d656e7465720000000000000000000000000000602082015250565b6000612a48603283611a6e565b9150612a53826129ec565b604082019050919050565b60006020820190508181036000830152612a7781612a3b565b9050919050565b7f4552433732313a206d696e7420746f20746865207a65726f2061646472657373600082015250565b6000612ab4602083611a6e565b9150612abf82612a7e565b602082019050919050565b60006020820190508181036000830152612ae381612aa7565b9050919050565b7f4552433732313a20746f6b656e20616c7265616479206d696e74656400000000600082015250565b6000612b20601c83611a6e565b9150612b2b82612aea565b602082019050919050565b60006020820190508181036000830152612b4f81612b13565b9050919050565b600081519050919050565b600082825260208201905092915050565b6000612b7d82612b56565b612b878185612b61565b9350612b97818560208601611a7f565b612ba081611ab2565b840191505092915050565b6000608082019050612bc06000830187611bb3565b612bcd6020830186611bb3565b612bda6040830185611e43565b8181036060830152612bec8184612b72565b905095945050505050565b600081519050612c06816119d4565b92915050565b600060208284031215612c2257612c2161199e565b5b6000612c3084828501612bf7565b9150509291505056fea26469706673582212200eae9f74880636b3075822adca0f8162b35da07786023620f8be9fb4cba2ad7e64736f6c634300080a0033",
  "immutableReferences": {},
  "source": "// SPDX-License-Identifier: MIT\r\n\r\npragma solidity ^0.8.0;\r\n\r\nimport \"@openzeppelin/contracts/token/ERC721/ERC721.sol\";\r\nimport \"@openzeppelin/contracts/utils/Counters.sol\";\r\nimport \"@openzeppelin/contracts/access/Ownable.sol\";\r\n\r\ncontract SmartContract is ERC721, Ownable {\r\n  using Counters for Counters.Counter;\r\n  using Strings for uint256;\r\n  Counters.Counter _tokenIds;\r\n  mapping(uint256 => string) _tokenURIs;\r\n\r\n  struct RenderToken {\r\n    uint256 id;\r\n    string uri;\r\n  }\r\n\r\n  constructor() ERC721(\"Smart Contract\", \"SC\") {}\r\n\r\n  function _setTokenURI(uint256 tokenId, string memory _tokenURI) internal {\r\n    _tokenURIs[tokenId] = _tokenURI;\r\n  }\r\n\r\n  function tokenURI(uint256 tokenId)\r\n    public\r\n    view\r\n    virtual\r\n    override\r\n    returns (string memory)\r\n  {\r\n    require(_exists(tokenId));\r\n    string memory _tokenURI = _tokenURIs[tokenId];\r\n    return _tokenURI;\r\n  }\r\n\r\n  function getAllTokens() public view returns (RenderToken[] memory) {\r\n    uint256 lastestId = _tokenIds.current();\r\n    uint256 counter = 0;\r\n    RenderToken[] memory res = new RenderToken[](lastestId);\r\n    for (uint256 i = 0; i < lastestId; i++) {\r\n      if (_exists(counter)) {\r\n        string memory uri = tokenURI(counter);\r\n        res[counter] = RenderToken(counter, uri);\r\n      }\r\n      counter++;\r\n    }\r\n    return res;\r\n  }\r\n\r\n  function mint(address recipient, string memory uri) public returns (uint256) {\r\n    uint256 newId = _tokenIds.current();\r\n    _mint(recipient, newId);\r\n    _setTokenURI(newId, uri);\r\n    _tokenIds.increment();\r\n    return newId;\r\n  }\r\n}",
  "sourcePath": "C:\\projects\\school\\abu\\contracts\\Blob.sol",
  "compiler": {
    "name": "solc",
    "version": "0.8.10+commit.fc410830.Emscripten.clang"
  },
  "schemaVersion": "3.4.3",
  "updatedAt": "2021-12-01T19:25:23.271Z",
  "devdoc": {
    "kind": "dev",
    "methods": {
      "approve(address,uint256)": {
        "details": "See {IERC721-approve}."
      },
      "balanceOf(address)": {
        "details": "See {IERC721-balanceOf}."
      },
      "getApproved(uint256)": {
        "details": "See {IERC721-getApproved}."
      },
      "isApprovedForAll(address,address)": {
        "details": "See {IERC721-isApprovedForAll}."
      },
      "name()": {
        "details": "See {IERC721Metadata-name}."
      },
      "owner()": {
        "details": "Returns the address of the current owner."
      },
      "ownerOf(uint256)": {
        "details": "See {IERC721-ownerOf}."
      },
      "renounceOwnership()": {
        "details": "Leaves the contract without owner. It will not be possible to call `onlyOwner` functions anymore. Can only be called by the current owner. NOTE: Renouncing ownership will leave the contract without an owner, thereby removing any functionality that is only available to the owner."
      },
      "safeTransferFrom(address,address,uint256)": {
        "details": "See {IERC721-safeTransferFrom}."
      },
      "safeTransferFrom(address,address,uint256,bytes)": {
        "details": "See {IERC721-safeTransferFrom}."
      },
      "setApprovalForAll(address,bool)": {
        "details": "See {IERC721-setApprovalForAll}."
      },
      "supportsInterface(bytes4)": {
        "details": "See {IERC165-supportsInterface}."
      },
      "symbol()": {
        "details": "See {IERC721Metadata-symbol}."
      },
      "tokenURI(uint256)": {
        "details": "See {IERC721Metadata-tokenURI}."
      },
      "transferFrom(address,address,uint256)": {
        "details": "See {IERC721-transferFrom}."
      },
      "transferOwnership(address)": {
        "details": "Transfers ownership of the contract to a new account (`newOwner`). Can only be called by the current owner."
      }
    },
    "version": 1
  },
  "userdoc": {
    "kind": "user",
    "methods": {},
    "version": 1
  }
}